{
  "_format": "hh-sol-artifact-1",
  "contractName": "Marketplace",
  "sourceName": "src/backend/contracts/Marketplace.sol",
  "abi": [
    {
      "inputs": [
        {
          "internalType": "uint256",
          "name": "_feePercent",
          "type": "uint256"
        }
      ],
      "stateMutability": "nonpayable",
      "type": "constructor"
    },
    {
      "anonymous": false,
      "inputs": [
        {
          "indexed": false,
          "internalType": "uint256",
          "name": "itemId",
          "type": "uint256"
        },
        {
          "indexed": true,
          "internalType": "address",
          "name": "nft",
          "type": "address"
        },
        {
          "indexed": false,
          "internalType": "uint256",
          "name": "tokenId",
          "type": "uint256"
        },
        {
          "indexed": false,
          "internalType": "uint256",
          "name": "price",
          "type": "uint256"
        },
        {
          "indexed": true,
          "internalType": "address",
          "name": "seller",
          "type": "address"
        },
        {
          "indexed": true,
          "internalType": "address",
          "name": "buyer",
          "type": "address"
        }
      ],
      "name": "Bought",
      "type": "event"
    },
    {
      "anonymous": false,
      "inputs": [
        {
          "indexed": false,
          "internalType": "uint256",
          "name": "itemId",
          "type": "uint256"
        },
        {
          "indexed": true,
          "internalType": "address",
          "name": "nft",
          "type": "address"
        },
        {
          "indexed": false,
          "internalType": "uint256",
          "name": "tokenId",
          "type": "uint256"
        },
        {
          "indexed": false,
          "internalType": "uint256",
          "name": "price",
          "type": "uint256"
        },
        {
          "indexed": true,
          "internalType": "address",
          "name": "seller",
          "type": "address"
        }
      ],
      "name": "Offered",
      "type": "event"
    },
    {
      "inputs": [],
      "name": "feeAccount",
      "outputs": [
        {
          "internalType": "address payable",
          "name": "",
          "type": "address"
        }
      ],
      "stateMutability": "view",
      "type": "function"
    },
    {
      "inputs": [],
      "name": "feePercent",
      "outputs": [
        {
          "internalType": "uint256",
          "name": "",
          "type": "uint256"
        }
      ],
      "stateMutability": "view",
      "type": "function"
    },
    {
      "inputs": [
        {
          "internalType": "uint256",
          "name": "_itemId",
          "type": "uint256"
        }
      ],
      "name": "getTotalPrice",
      "outputs": [
        {
          "internalType": "uint256",
          "name": "",
          "type": "uint256"
        }
      ],
      "stateMutability": "view",
      "type": "function"
    },
    {
      "inputs": [],
      "name": "itemCount",
      "outputs": [
        {
          "internalType": "uint256",
          "name": "",
          "type": "uint256"
        }
      ],
      "stateMutability": "view",
      "type": "function"
    },
    {
      "inputs": [
        {
          "internalType": "uint256",
          "name": "",
          "type": "uint256"
        }
      ],
      "name": "items",
      "outputs": [
        {
          "internalType": "uint256",
          "name": "itemId",
          "type": "uint256"
        },
        {
          "internalType": "contract IERC721",
          "name": "nft",
          "type": "address"
        },
        {
          "internalType": "uint256",
          "name": "tokenId",
          "type": "uint256"
        },
        {
          "internalType": "uint256",
          "name": "price",
          "type": "uint256"
        },
        {
          "internalType": "address payable",
          "name": "seller",
          "type": "address"
        },
        {
          "internalType": "bool",
          "name": "sold",
          "type": "bool"
        },
        {
          "internalType": "address",
          "name": "UserAddress",
          "type": "address"
        }
      ],
      "stateMutability": "view",
      "type": "function"
    },
    {
      "inputs": [
        {
          "internalType": "contract IERC721",
          "name": "_nft",
          "type": "address"
        },
        {
          "internalType": "uint256",
          "name": "_tokenId",
          "type": "uint256"
        },
        {
          "internalType": "uint256",
          "name": "_price",
          "type": "uint256"
        },
        {
          "internalType": "address",
          "name": "UserAddress",
          "type": "address"
        }
      ],
      "name": "makeItem",
      "outputs": [],
      "stateMutability": "nonpayable",
      "type": "function"
    },
    {
      "inputs": [
        {
          "internalType": "uint256",
          "name": "_itemId",
          "type": "uint256"
        }
      ],
      "name": "purchaseItem",
      "outputs": [],
      "stateMutability": "payable",
      "type": "function"
    }
  ],
  "bytecode": "0x60c060405234801561001057600080fd5b506040516112e63803806112e683398181016040528101906100329190610094565b60016000819055503373ffffffffffffffffffffffffffffffffffffffff1660808173ffffffffffffffffffffffffffffffffffffffff1660601b815250508060a08181525050506100de565b60008151905061008e816100c7565b92915050565b6000602082840312156100a657600080fd5b60006100b48482850161007f565b91505092915050565b6000819050919050565b6100d0816100bd565b81146100db57600080fd5b50565b60805160601c60a0516111d26101146000396000818161051d01526105f40152600081816104f3015261088901526111d26000f3fe6080604052600436106100705760003560e01c80637fd6f15c1161004e5780637fd6f15c146100f4578063bfb231d21461011f578063ca7dd37514610162578063d38ea5bf1461019f57610070565b80632d121be41461007557806365e17c9d1461009e5780636bfb0d01146100c9575b600080fd5b34801561008157600080fd5b5061009c60048036038101906100979190610ace565b6101bb565b005b3480156100aa57600080fd5b506100b36104f1565b6040516100c09190610c54565b60405180910390f35b3480156100d557600080fd5b506100de610515565b6040516100eb9190610d46565b60405180910390f35b34801561010057600080fd5b5061010961051b565b6040516101169190610d46565b60405180910390f35b34801561012b57600080fd5b5061014660048036038101906101419190610b31565b61053f565b6040516101599796959493929190610d61565b60405180910390f35b34801561016e57600080fd5b5061018960048036038101906101849190610b31565b6105ee565b6040516101969190610d46565b60405180910390f35b6101b960048036038101906101b49190610b31565b610651565b005b60026000541415610201576040517f08c379a00000000000000000000000000000000000000000000000000000000081526004016101f890610d26565b60405180910390fd5b60026000819055506000821161024c576040517f08c379a000000000000000000000000000000000000000000000000000000000815260040161024390610cc6565b60405180910390fd5b6001600081548092919061025f90610fbd565b91905055508373ffffffffffffffffffffffffffffffffffffffff166323b872dd3330866040518463ffffffff1660e01b81526004016102a193929190610c6f565b600060405180830381600087803b1580156102bb57600080fd5b505af11580156102cf573d6000803e3d6000fd5b505050506040518060e0016040528060015481526020018573ffffffffffffffffffffffffffffffffffffffff1681526020018481526020018381526020013373ffffffffffffffffffffffffffffffffffffffff1681526020016000151581526020018273ffffffffffffffffffffffffffffffffffffffff168152506002600060015481526020019081526020016000206000820151816000015560208201518160010160006101000a81548173ffffffffffffffffffffffffffffffffffffffff021916908373ffffffffffffffffffffffffffffffffffffffff160217905550604082015181600201556060820151816003015560808201518160040160006101000a81548173ffffffffffffffffffffffffffffffffffffffff021916908373ffffffffffffffffffffffffffffffffffffffff16021790555060a08201518160040160146101000a81548160ff02191690831515021790555060c08201518160050160006101000a81548173ffffffffffffffffffffffffffffffffffffffff021916908373ffffffffffffffffffffffffffffffffffffffff1602179055509050503373ffffffffffffffffffffffffffffffffffffffff168473ffffffffffffffffffffffffffffffffffffffff167f655a0cf9c8db81512be9a76dc1c5ae5380b8816ce6ad659cd61b715e2999d59a60015486866040516104db93929190610dd0565b60405180910390a3600160008190555050505050565b7f000000000000000000000000000000000000000000000000000000000000000081565b60015481565b7f000000000000000000000000000000000000000000000000000000000000000081565b60026020528060005260406000206000915090508060000154908060010160009054906101000a900473ffffffffffffffffffffffffffffffffffffffff16908060020154908060030154908060040160009054906101000a900473ffffffffffffffffffffffffffffffffffffffff16908060040160149054906101000a900460ff16908060050160009054906101000a900473ffffffffffffffffffffffffffffffffffffffff16905087565b600060647f0000000000000000000000000000000000000000000000000000000000000000606461061f9190610e18565b60026000858152602001908152602001600020600301546106409190610e9f565b61064a9190610e6e565b9050919050565b803373ffffffffffffffffffffffffffffffffffffffff166002600083815260200190815260200160002060050160009054906101000a900473ffffffffffffffffffffffffffffffffffffffff1673ffffffffffffffffffffffffffffffffffffffff16146106c057600080fd5b60026000541415610706576040517f08c379a00000000000000000000000000000000000000000000000000000000081526004016106fd90610d26565b60405180910390fd5b60026000819055506000610719836105ee565b9050600060026000858152602001908152602001600020905060008411801561074457506001548411155b610783576040517f08c379a000000000000000000000000000000000000000000000000000000000815260040161077a90610d06565b60405180910390fd5b813410156107c6576040517f08c379a00000000000000000000000000000000000000000000000000000000081526004016107bd90610ce6565b60405180910390fd5b8060040160149054906101000a900460ff1615610818576040517f08c379a000000000000000000000000000000000000000000000000000000000815260040161080f90610ca6565b60405180910390fd5b8060040160009054906101000a900473ffffffffffffffffffffffffffffffffffffffff1673ffffffffffffffffffffffffffffffffffffffff166108fc82600301549081150290604051600060405180830381858888f19350505050158015610886573d6000803e3d6000fd5b507f000000000000000000000000000000000000000000000000000000000000000073ffffffffffffffffffffffffffffffffffffffff166108fc8260030154846108d19190610ef9565b9081150290604051600060405180830381858888f193505050501580156108fc573d6000803e3d6000fd5b5060018160040160146101000a81548160ff0219169083151502179055508060010160009054906101000a900473ffffffffffffffffffffffffffffffffffffffff1673ffffffffffffffffffffffffffffffffffffffff166323b872dd303384600201546040518463ffffffff1660e01b815260040161097f93929190610c6f565b600060405180830381600087803b15801561099957600080fd5b505af11580156109ad573d6000803e3d6000fd5b505050503373ffffffffffffffffffffffffffffffffffffffff168160040160009054906101000a900473ffffffffffffffffffffffffffffffffffffffff1673ffffffffffffffffffffffffffffffffffffffff168260010160009054906101000a900473ffffffffffffffffffffffffffffffffffffffff1673ffffffffffffffffffffffffffffffffffffffff167f8b4c9c8a607d67b321582dd8461041b1dc2ceeca70c8b7f37f8e02095cf2e76d8785600201548660030154604051610a7993929190610dd0565b60405180910390a4505060016000819055505050565b600081359050610a9e81611157565b92915050565b600081359050610ab38161116e565b92915050565b600081359050610ac881611185565b92915050565b60008060008060808587031215610ae457600080fd5b6000610af287828801610aa4565b9450506020610b0387828801610ab9565b9350506040610b1487828801610ab9565b9250506060610b2587828801610a8f565b91505092959194509250565b600060208284031215610b4357600080fd5b6000610b5184828501610ab9565b91505092915050565b610b6381610f3f565b82525050565b610b7281610f2d565b82525050565b610b8181610f51565b82525050565b610b9081610f99565b82525050565b6000610ba3601183610e07565b9150610bae82611064565b602082019050919050565b6000610bc6601f83610e07565b9150610bd18261108d565b602082019050919050565b6000610be9603383610e07565b9150610bf4826110b6565b604082019050919050565b6000610c0c601283610e07565b9150610c1782611105565b602082019050919050565b6000610c2f601f83610e07565b9150610c3a8261112e565b602082019050919050565b610c4e81610f8f565b82525050565b6000602082019050610c696000830184610b5a565b92915050565b6000606082019050610c846000830186610b69565b610c916020830185610b69565b610c9e6040830184610c45565b949350505050565b60006020820190508181036000830152610cbf81610b96565b9050919050565b60006020820190508181036000830152610cdf81610bb9565b9050919050565b60006020820190508181036000830152610cff81610bdc565b9050919050565b60006020820190508181036000830152610d1f81610bff565b9050919050565b60006020820190508181036000830152610d3f81610c22565b9050919050565b6000602082019050610d5b6000830184610c45565b92915050565b600060e082019050610d76600083018a610c45565b610d836020830189610b87565b610d906040830188610c45565b610d9d6060830187610c45565b610daa6080830186610b5a565b610db760a0830185610b78565b610dc460c0830184610b69565b98975050505050505050565b6000606082019050610de56000830186610c45565b610df26020830185610c45565b610dff6040830184610c45565b949350505050565b600082825260208201905092915050565b6000610e2382610f8f565b9150610e2e83610f8f565b9250827fffffffffffffffffffffffffffffffffffffffffffffffffffffffffffffffff03821115610e6357610e62611006565b5b828201905092915050565b6000610e7982610f8f565b9150610e8483610f8f565b925082610e9457610e93611035565b5b828204905092915050565b6000610eaa82610f8f565b9150610eb583610f8f565b9250817fffffffffffffffffffffffffffffffffffffffffffffffffffffffffffffffff0483118215151615610eee57610eed611006565b5b828202905092915050565b6000610f0482610f8f565b9150610f0f83610f8f565b925082821015610f2257610f21611006565b5b828203905092915050565b6000610f3882610f6f565b9050919050565b6000610f4a82610f6f565b9050919050565b60008115159050919050565b6000610f6882610f2d565b9050919050565b600073ffffffffffffffffffffffffffffffffffffffff82169050919050565b6000819050919050565b6000610fa482610fab565b9050919050565b6000610fb682610f6f565b9050919050565b6000610fc882610f8f565b91507fffffffffffffffffffffffffffffffffffffffffffffffffffffffffffffffff821415610ffb57610ffa611006565b5b600182019050919050565b7f4e487b7100000000000000000000000000000000000000000000000000000000600052601160045260246000fd5b7f4e487b7100000000000000000000000000000000000000000000000000000000600052601260045260246000fd5b7f6974656d20616c726561647920736f6c64000000000000000000000000000000600082015250565b7f5072696365206d7573742062652067726561746572207468616e207a65726f00600082015250565b7f6e6f7420656e6f75676820657468657220746f20636f766572206974656d207060008201527f7269636520616e64206d61726b65742066656500000000000000000000000000602082015250565b7f6974656d20646f65736e27742065786973740000000000000000000000000000600082015250565b7f5265656e7472616e637947756172643a207265656e7472616e742063616c6c00600082015250565b61116081610f2d565b811461116b57600080fd5b50565b61117781610f5d565b811461118257600080fd5b50565b61118e81610f8f565b811461119957600080fd5b5056fea2646970667358221220c6ef3435c50badc2fe80957dd991e679d490eaf502d690982b59073574e0af3c64736f6c63430008040033",
  "linkReferences": {},
  "deployedLinkReferences": {}
}